{
  "contractName": "Arrendar",
  "abi": [
    {
      "constant": true,
      "inputs": [],
      "name": "anfitrion",
      "outputs": [
        {
          "name": "nombre",
          "type": "string"
        },
        {
          "name": "token",
          "type": "uint256"
        },
        {
          "name": "id",
          "type": "address"
        }
      ],
      "payable": false,
      "stateMutability": "view",
      "type": "function"
    },
    {
      "constant": true,
      "inputs": [],
      "name": "domo",
      "outputs": [
        {
          "name": "descripcion",
          "type": "string"
        },
        {
          "name": "precio",
          "type": "uint256"
        },
        {
          "name": "alcancia",
          "type": "uint256"
        },
        {
          "name": "fecha",
          "type": "uint256"
        },
        {
          "name": "pet",
          "type": "bool"
        },
        {
          "name": "kid",
          "type": "bool"
        },
        {
          "name": "anfi",
          "type": "address"
        }
      ],
      "payable": false,
      "stateMutability": "view",
      "type": "function"
    },
    {
      "payable": true,
      "stateMutability": "payable",
      "type": "fallback"
    },
    {
      "constant": false,
      "inputs": [
        {
          "name": "_descripcion",
          "type": "string"
        },
        {
          "name": "_precio",
          "type": "uint256"
        },
        {
          "name": "_alcancia",
          "type": "uint256"
        },
        {
          "name": "_nombre",
          "type": "string"
        },
        {
          "name": "_pet",
          "type": "bool"
        },
        {
          "name": "_kid",
          "type": "bool"
        }
      ],
      "name": "arrendamiento",
      "outputs": [],
      "payable": false,
      "stateMutability": "nonpayable",
      "type": "function"
    },
    {
      "constant": false,
      "inputs": [],
      "name": "getDesc",
      "outputs": [
        {
          "name": "",
          "type": "string"
        }
      ],
      "payable": false,
      "stateMutability": "nonpayable",
      "type": "function"
    },
    {
      "constant": false,
      "inputs": [],
      "name": "getPrecio",
      "outputs": [
        {
          "name": "",
          "type": "uint256"
        }
      ],
      "payable": false,
      "stateMutability": "nonpayable",
      "type": "function"
    },
    {
      "constant": false,
      "inputs": [],
      "name": "getAlcancia",
      "outputs": [
        {
          "name": "",
          "type": "uint256"
        }
      ],
      "payable": false,
      "stateMutability": "nonpayable",
      "type": "function"
    },
    {
      "constant": false,
      "inputs": [],
      "name": "getFecha",
      "outputs": [
        {
          "name": "",
          "type": "uint256"
        }
      ],
      "payable": false,
      "stateMutability": "nonpayable",
      "type": "function"
    },
    {
      "constant": false,
      "inputs": [],
      "name": "getPet",
      "outputs": [
        {
          "name": "",
          "type": "bool"
        }
      ],
      "payable": false,
      "stateMutability": "nonpayable",
      "type": "function"
    },
    {
      "constant": false,
      "inputs": [],
      "name": "getKid",
      "outputs": [
        {
          "name": "",
          "type": "bool"
        }
      ],
      "payable": false,
      "stateMutability": "nonpayable",
      "type": "function"
    },
    {
      "constant": false,
      "inputs": [],
      "name": "getID",
      "outputs": [
        {
          "name": "",
          "type": "address"
        }
      ],
      "payable": false,
      "stateMutability": "nonpayable",
      "type": "function"
    },
    {
      "constant": false,
      "inputs": [],
      "name": "getNombre",
      "outputs": [
        {
          "name": "",
          "type": "string"
        }
      ],
      "payable": false,
      "stateMutability": "nonpayable",
      "type": "function"
    },
    {
      "constant": false,
      "inputs": [],
      "name": "getName",
      "outputs": [
        {
          "name": "",
          "type": "string"
        }
      ],
      "payable": false,
      "stateMutability": "nonpayable",
      "type": "function"
    },
    {
      "constant": false,
      "inputs": [],
      "name": "getToken",
      "outputs": [
        {
          "name": "",
          "type": "uint256"
        }
      ],
      "payable": false,
      "stateMutability": "nonpayable",
      "type": "function"
    },
    {
      "constant": false,
      "inputs": [],
      "name": "getAlcanciaEth",
      "outputs": [
        {
          "name": "",
          "type": "uint256"
        }
      ],
      "payable": false,
      "stateMutability": "nonpayable",
      "type": "function"
    },
    {
      "constant": false,
      "inputs": [],
      "name": "balanceInv",
      "outputs": [
        {
          "name": "",
          "type": "uint256"
        }
      ],
      "payable": false,
      "stateMutability": "nonpayable",
      "type": "function"
    },
    {
      "constant": false,
      "inputs": [],
      "name": "numPipol",
      "outputs": [
        {
          "name": "",
          "type": "uint256"
        }
      ],
      "payable": false,
      "stateMutability": "nonpayable",
      "type": "function"
    },
    {
      "constant": false,
      "inputs": [],
      "name": "getPoints",
      "outputs": [
        {
          "name": "",
          "type": "uint256"
        }
      ],
      "payable": false,
      "stateMutability": "nonpayable",
      "type": "function"
    },
    {
      "constant": false,
      "inputs": [
        {
          "name": "point",
          "type": "uint256"
        }
      ],
      "name": "setPoints",
      "outputs": [],
      "payable": false,
      "stateMutability": "nonpayable",
      "type": "function"
    },
    {
      "constant": false,
      "inputs": [
        {
          "name": "_nombre",
          "type": "string"
        },
        {
          "name": "_pet",
          "type": "bool"
        },
        {
          "name": "_kid",
          "type": "bool"
        }
      ],
      "name": "arrendar",
      "outputs": [],
      "payable": false,
      "stateMutability": "nonpayable",
      "type": "function"
    },
    {
      "constant": false,
      "inputs": [],
      "name": "sancionar",
      "outputs": [
        {
          "name": "",
          "type": "uint256"
        }
      ],
      "payable": false,
      "stateMutability": "nonpayable",
      "type": "function"
    }
  ],
  "bytecode": "0x60806040526000805534801561001457600080fd5b50611414806100246000396000f300608060405260043610610112576000357c0100000000000000000000000000000000000000000000000000000000900463ffffffff168063085dd2f31461012357806317d7de7c1461014e57806321df0da7146101de578063456f4b571461020957806348ebf829146102d35780634a5dab9f14610302578063569a86bc146103f057806359a9bef71461041b578063644d81641461044657806366dc3659146104d6578063851714c6146105015780638cf3375d14610582578063a1278cfc146105b1578063a312880b146105dc578063ab9dbd0714610607578063d75cbf9b1461065e578063de8cee0f146106ee578063eb5bd8ba14610719578063ec98c75314610746578063f4b7095b14610821575b346000808282540192505081905550005b34801561012f57600080fd5b5061013861084c565b6040518082815260200191505060405180910390f35b34801561015a57600080fd5b50610163610859565b6040518080602001828103825283818151815260200191508051906020019080838360005b838110156101a3578082015181840152602081019050610188565b50505050905090810190601f1680156101d05780820380516001836020036101000a031916815260200191505b509250505060405180910390f35b3480156101ea57600080fd5b506101f361093e565b6040518082815260200191505060405180910390f35b34801561021557600080fd5b5061021e610947565b60405180806020018481526020018373ffffffffffffffffffffffffffffffffffffffff1673ffffffffffffffffffffffffffffffffffffffff168152602001828103825285818151815260200191508051906020019080838360005b8381101561029657808201518184015260208101905061027b565b50505050905090810190601f1680156102c35780820380516001836020036101000a031916815260200191505b5094505050505060405180910390f35b3480156102df57600080fd5b506102e8610a17565b604051808215151515815260200191505060405180910390f35b34801561030e57600080fd5b50610317610a30565b604051808060200188815260200187815260200186815260200185151515158152602001841515151581526020018373ffffffffffffffffffffffffffffffffffffffff1673ffffffffffffffffffffffffffffffffffffffff168152602001828103825289818151815260200191508051906020019080838360005b838110156103af578082015181840152602081019050610394565b50505050905090810190601f1680156103dc5780820380516001836020036101000a031916815260200191505b509850505050505050505060405180910390f35b3480156103fc57600080fd5b50610405610b32565b6040518082815260200191505060405180910390f35b34801561042757600080fd5b50610430610c3c565b6040518082815260200191505060405180910390f35b34801561045257600080fd5b5061045b610c5b565b6040518080602001828103825283818151815260200191508051906020019080838360005b8381101561049b578082015181840152602081019050610480565b50505050905090810190601f1680156104c85780820380516001836020036101000a031916815260200191505b509250505060405180910390f35b3480156104e257600080fd5b506104eb610d00565b6040518082815260200191505060405180910390f35b34801561050d57600080fd5b50610580600480360381019080803590602001908201803590602001908080601f0160208091040260200160405190810160405280939291908181526020018383808284378201915050505050509192919290803515159060200190929190803515159060200190929190505050610d0d565b005b34801561058e57600080fd5b50610597610f04565b604051808215151515815260200191505060405180910390f35b3480156105bd57600080fd5b506105c6610f1d565b6040518082815260200191505060405180910390f35b3480156105e857600080fd5b506105f1610f40565b6040518082815260200191505060405180910390f35b34801561061357600080fd5b5061061c610f4d565b604051808273ffffffffffffffffffffffffffffffffffffffff1673ffffffffffffffffffffffffffffffffffffffff16815260200191505060405180910390f35b34801561066a57600080fd5b50610673610f7a565b6040518080602001828103825283818151815260200191508051906020019080838360005b838110156106b3578082015181840152602081019050610698565b50505050905090810190601f1680156106e05780820380516001836020036101000a031916815260200191505b509250505060405180910390f35b3480156106fa57600080fd5b5061070361101f565b6040518082815260200191505060405180910390f35b34801561072557600080fd5b506107446004803603810190808035906020019092919050505061102f565b005b34801561075257600080fd5b5061081f600480360381019080803590602001908201803590602001908080601f01602080910402602001604051908101604052809392919081815260200183838082843782019150505050505091929192908035906020019092919080359060200190929190803590602001908201803590602001908080601f0160208091040260200160405190810160405280939291908181526020018383808284378201915050505050509192919290803515159060200190929190803515159060200190929190505050611082565b005b34801561082d57600080fd5b506108366111e4565b6040518082815260200191505060405180910390f35b6000600460020154905090565b6060600460050160003373ffffffffffffffffffffffffffffffffffffffff1673ffffffffffffffffffffffffffffffffffffffff1681526020019081526020016000206000018054600181600116156101000203166002900480601f0160208091040260200160405190810160405280929190818152602001828054600181600116156101000203166002900480156109345780601f1061090957610100808354040283529160200191610934565b820191906000526020600020905b81548152906001019060200180831161091757829003601f168201915b5050505050905090565b60008054905090565b6001806000018054600181600116156101000203166002900480601f0160208091040260200160405190810160405280929190818152602001828054600181600116156101000203166002900480156109e15780601f106109b6576101008083540402835291602001916109e1565b820191906000526020600020905b8154815290600101906020018083116109c457829003601f168201915b5050505050908060010154908060020160009054906101000a900473ffffffffffffffffffffffffffffffffffffffff16905083565b60006004800160019054906101000a900460ff16905090565b6004806000018054600181600116156101000203166002900480601f016020809104026020016040519081016040528092919081815260200182805460018160011615610100020316600290048015610aca5780601f10610a9f57610100808354040283529160200191610aca565b820191906000526020600020905b815481529060010190602001808311610aad57829003601f168201915b5050505050908060010154908060020154908060030154908060040160009054906101000a900460ff16908060040160019054906101000a900460ff16908060060160009054906101000a900473ffffffffffffffffffffffffffffffffffffffff16905087565b6000806000600191508160005410151515610b4c57600080fd5b670de0b6b3a764000082026000808282540392505081905550600160020160009054906101000a900473ffffffffffffffffffffffffffffffffffffffff1673ffffffffffffffffffffffffffffffffffffffff166108fc670de0b6b3a764000084029081150290604051600060405180830381858888f19350505050158015610bda573d6000803e3d6000fd5b50600460050160003373ffffffffffffffffffffffffffffffffffffffff1673ffffffffffffffffffffffffffffffffffffffff1681526020019081526020016000209050600181600301600082825403925050819055506000549250505090565b60003373ffffffffffffffffffffffffffffffffffffffff1631905090565b606060046000018054600181600116156101000203166002900480601f016020809104026020016040519081016040528092919081815260200182805460018160011615610100020316600290048015610cf65780601f10610ccb57610100808354040283529160200191610cf6565b820191906000526020600020905b815481529060010190602001808311610cd957829003601f168201915b5050505050905090565b6000600460030154905090565b6000610d1a838333611231565b1515610d2557600080fd5b600460050160003373ffffffffffffffffffffffffffffffffffffffff1673ffffffffffffffffffffffffffffffffffffffff168152602001908152602001600020905083816000019080519060200190610d819291906112c3565b503373ffffffffffffffffffffffffffffffffffffffff16318160010181905550828160020160006101000a81548160ff021916908315150217905550818160020160016101000a81548160ff0219169083151502179055506005816003018190555060046007013390806001815401808255809150509060018203906000526020600020016000909192909190916101000a81548173ffffffffffffffffffffffffffffffffffffffff021916908373ffffffffffffffffffffffffffffffffffffffff16021790555050670de0b6b3a76400006002600460010154811515610e6757fe5b04026000808282540392505081905550600160020160009054906101000a900473ffffffffffffffffffffffffffffffffffffffff1673ffffffffffffffffffffffffffffffffffffffff166108fc670de0b6b3a76400006002600460010154811515610ed057fe5b04029081150290604051600060405180830381858888f19350505050158015610efd573d6000803e3d6000fd5b5050505050565b60006004800160009054906101000a900460ff16905090565b600080670de0b6b3a7640000600460020154600460010154010290508091505090565b6000600460010154905090565b6000600160020160009054906101000a900473ffffffffffffffffffffffffffffffffffffffff16905090565b606060016000018054600181600116156101000203166002900480601f0160208091040260200160405190810160405280929190818152602001828054600181600116156101000203166002900480156110155780601f10610fea57610100808354040283529160200191611015565b820191906000526020600020905b815481529060010190602001808311610ff857829003601f168201915b5050505050905090565b6000600460070180549050905090565b6000600460050160003373ffffffffffffffffffffffffffffffffffffffff1673ffffffffffffffffffffffffffffffffffffffff16815260200190815260200160002090508181600301819055505050565b606060405190810160405280848152602001600081526020013373ffffffffffffffffffffffffffffffffffffffff16815250600160008201518160000190805190602001906110d3929190611343565b506020820151816001015560408201518160020160006101000a81548173ffffffffffffffffffffffffffffffffffffffff021916908373ffffffffffffffffffffffffffffffffffffffff16021790555090505085600460000190805190602001906111419291906112c3565b50846004600101819055508360046002018190555042600460030181905550816004800160006101000a81548160ff021916908315150217905550806004800160016101000a81548160ff02191690831515021790555033600460060160006101000a81548173ffffffffffffffffffffffffffffffffffffffff021916908373ffffffffffffffffffffffffffffffffffffffff160217905550505050505050565b6000600460050160003373ffffffffffffffffffffffffffffffffffffffff1673ffffffffffffffffffffffffffffffffffffffff16815260200190815260200160002060030154905090565b600080670de0b6b3a7640000600460020154600460010154010290508415156004800160009054906101000a900460ff16151514801561128557508315156004800160019054906101000a900460ff161515145b80156112a85750808373ffffffffffffffffffffffffffffffffffffffff163110155b156112b657600191506112bb565b600091505b509392505050565b828054600181600116156101000203166002900490600052602060002090601f016020900481019282601f1061130457805160ff1916838001178555611332565b82800160010185558215611332579182015b82811115611331578251825591602001919060010190611316565b5b50905061133f91906113c3565b5090565b828054600181600116156101000203166002900490600052602060002090601f016020900481019282601f1061138457805160ff19168380011785556113b2565b828001600101855582156113b2579182015b828111156113b1578251825591602001919060010190611396565b5b5090506113bf91906113c3565b5090565b6113e591905b808211156113e15760008160009055506001016113c9565b5090565b905600a165627a7a72305820cb46377fff7d350f41976c1c2858700cafab2d5049de7c6806d993c197c9b1940029",
  "source": "pragma solidity ^0.4.17;\r\n\r\ncontract Arrendar{\r\n\r\n    uint256 deposito = 0;\r\n    function () public payable{\r\n        deposito += msg.value;\r\n    }\r\n\r\n    struct Domo{\r\n        string descripcion;\r\n        uint precio;\r\n        uint alcancia;\r\n        uint fecha;\r\n        bool pet;\r\n        bool kid;\r\n        mapping(address => Invitado) invitados;\r\n        address anfi;\r\n        address[] dirs;\r\n    }\r\n\r\n    struct Invitado{\r\n        string nombre;\r\n        uint token;\r\n        bool pets;\r\n        bool kids;\r\n        uint points;\r\n    }\r\n\r\n    struct Anfitrion{\r\n        string nombre;\r\n        uint token;\r\n        address id;\r\n    }\r\n\r\n    Anfitrion public anfitrion;\r\n    Domo public domo;\r\n    \r\n    function arrendamiento(string _descripcion, uint _precio, uint _alcancia, string _nombre, bool _pet, bool _kid) public {\r\n        anfitrion = Anfitrion(_nombre, 0, msg.sender);\r\n\r\n        domo.descripcion = _descripcion;\r\n        domo.precio = _precio;\r\n        domo.alcancia = _alcancia;\r\n        domo.fecha = now;\r\n        domo.pet = _pet;\r\n        domo.kid = _kid;\r\n        domo.anfi = msg.sender;\r\n    }\r\n\r\n    function getDesc() public returns(string){\r\n        return domo.descripcion;\r\n    }\r\n\r\n    function getPrecio() public returns(uint){\r\n        return domo.precio;\r\n    }\r\n\r\n    function getAlcancia() public returns(uint){\r\n        return domo.alcancia;\r\n    }\r\n\r\n    function getFecha() public returns(uint){\r\n        return domo.fecha;\r\n    }\r\n\r\n    function getPet() public returns(bool){\r\n        return domo.pet;\r\n    }\r\n\r\n    function getKid() public returns(bool){\r\n        return domo.kid;\r\n    }\r\n\r\n    function getID() public returns(address){\r\n        return anfitrion.id;\r\n    }\r\n\r\n    function getNombre() public returns(string){\r\n        return anfitrion.nombre;\r\n    }\r\n\r\n    function getName() public returns(string){\r\n        return domo.invitados[msg.sender].nombre;\r\n    }\r\n\r\n    function getToken() public returns(uint256){\r\n        return deposito;\r\n    }\r\n\r\n    function getAlcanciaEth() public returns(uint256){\r\n        var min = (domo.precio + domo.alcancia) * 1 ether;\r\n        return min;\r\n    }\r\n\r\n    function balanceInv() public returns(uint256){\r\n        return msg.sender.balance;\r\n    }\r\n\r\n    function numPipol() public returns(uint){\r\n        return domo.dirs.length;\r\n    }\r\n\r\n    function getPoints() public returns(uint){\r\n        return domo.invitados[msg.sender].points;\r\n    }\r\n\r\n    function setPoints(uint point) public{\r\n        var inv = domo.invitados[msg.sender];\r\n        inv.points = point;\r\n    }\r\n\r\n    function _solicitar(bool _mascota, bool _ninio, address owner) private returns(bool) {\r\n        var min = (domo.precio + domo.alcancia) * 1 ether;\r\n\r\n        if (domo.pet == _mascota && domo.kid == _ninio && owner.balance >= min) {\r\n            return true;\r\n        } else {\r\n            return false;\r\n        }\r\n    }\r\n\r\n    function arrendar(string _nombre, bool _pet, bool _kid) public {\r\n        require(_solicitar(_pet, _kid, msg.sender));\r\n\r\n        var guest = domo.invitados[msg.sender];\r\n        guest.nombre = _nombre;\r\n        guest.token = msg.sender.balance;\r\n        guest.pets = _pet;\r\n        guest.kids = _kid;\r\n        guest.points = 5;\r\n        domo.dirs.push(msg.sender);\r\n        deposito -= (domo.precio/2) * 1 ether;\r\n        anfitrion.id.transfer(((domo.precio/2) * 1 ether));\r\n    }\r\n\r\n    function sancionar() public returns(uint256){\r\n        uint256 sancion = 1;\r\n        require(deposito >= sancion);\r\n\r\n        deposito -= (sancion * 1 ether);\r\n        anfitrion.id.transfer((sancion * 1 ether));\r\n\r\n        var guest = domo.invitados[msg.sender];\r\n        guest.points -= 1;\r\n\r\n        return deposito;\r\n    }\r\n\r\n}",
  "sourcePath": "D:\\Solidity\\Keeper\\contracts\\Arrendar.sol",
  "compiler": {
    "name": "solc",
    "version": "0.4.24+commit.e67f0147.Emscripten.clang"
  },
  "schemaVersion": "2.0.1",
  "updatedAt": "2018-12-01T18:21:35.545Z"
}